{
  "contractName": "EvenOdd",
  "abi": [
    {
      "inputs": [],
      "stateMutability": "nonpayable",
      "type": "constructor"
    },
    {
      "inputs": [],
      "name": "BET_TIMEOUT",
      "outputs": [
        {
          "internalType": "uint256",
          "name": "",
          "type": "uint256"
        }
      ],
      "stateMutability": "view",
      "type": "function",
      "constant": true
    },
    {
      "inputs": [],
      "name": "DEFAULT_BET_AMOUNT",
      "outputs": [
        {
          "internalType": "uint256",
          "name": "",
          "type": "uint256"
        }
      ],
      "stateMutability": "view",
      "type": "function",
      "constant": true
    },
    {
      "inputs": [
        {
          "internalType": "uint256",
          "name": "",
          "type": "uint256"
        }
      ],
      "name": "arrayPlayerEven",
      "outputs": [
        {
          "internalType": "address payable",
          "name": "",
          "type": "address"
        }
      ],
      "stateMutability": "view",
      "type": "function",
      "constant": true
    },
    {
      "inputs": [
        {
          "internalType": "uint256",
          "name": "",
          "type": "uint256"
        }
      ],
      "name": "arrayPlayerOdd",
      "outputs": [
        {
          "internalType": "address payable",
          "name": "",
          "type": "address"
        }
      ],
      "stateMutability": "view",
      "type": "function",
      "constant": true
    },
    {
      "inputs": [
        {
          "internalType": "uint256",
          "name": "",
          "type": "uint256"
        }
      ],
      "name": "gameHistory",
      "outputs": [
        {
          "internalType": "uint256",
          "name": "",
          "type": "uint256"
        }
      ],
      "stateMutability": "view",
      "type": "function",
      "constant": true
    },
    {
      "inputs": [],
      "name": "gameId",
      "outputs": [
        {
          "internalType": "uint256",
          "name": "",
          "type": "uint256"
        }
      ],
      "stateMutability": "view",
      "type": "function",
      "constant": true
    },
    {
      "inputs": [],
      "name": "resetRound",
      "outputs": [],
      "stateMutability": "nonpayable",
      "type": "function"
    },
    {
      "inputs": [],
      "name": "getFund",
      "outputs": [
        {
          "internalType": "uint256",
          "name": "",
          "type": "uint256"
        }
      ],
      "stateMutability": "view",
      "type": "function",
      "constant": true
    },
    {
      "inputs": [],
      "name": "getOddPlayers",
      "outputs": [
        {
          "internalType": "address payable[]",
          "name": "",
          "type": "address[]"
        }
      ],
      "stateMutability": "view",
      "type": "function",
      "constant": true
    },
    {
      "inputs": [],
      "name": "getEvenPlayers",
      "outputs": [
        {
          "internalType": "address payable[]",
          "name": "",
          "type": "address[]"
        }
      ],
      "stateMutability": "view",
      "type": "function",
      "constant": true
    },
    {
      "inputs": [],
      "name": "getTotalPlayers",
      "outputs": [
        {
          "internalType": "uint256",
          "name": "",
          "type": "uint256"
        }
      ],
      "stateMutability": "view",
      "type": "function",
      "constant": true
    },
    {
      "inputs": [],
      "name": "putInEven",
      "outputs": [],
      "stateMutability": "payable",
      "type": "function",
      "payable": true
    },
    {
      "inputs": [],
      "name": "putInOdd",
      "outputs": [],
      "stateMutability": "payable",
      "type": "function",
      "payable": true
    },
    {
      "inputs": [],
      "name": "rollTheDice",
      "outputs": [
        {
          "internalType": "uint256",
          "name": "",
          "type": "uint256"
        }
      ],
      "stateMutability": "view",
      "type": "function",
      "constant": true
    },
    {
      "inputs": [],
      "name": "deposit",
      "outputs": [],
      "stateMutability": "payable",
      "type": "function",
      "payable": true
    },
    {
      "inputs": [],
      "name": "endBet",
      "outputs": [],
      "stateMutability": "nonpayable",
      "type": "function"
    }
  ],
  "bytecode": "0x6080604052600060035534801561001557600080fd5b50336000806101000a81548173ffffffffffffffffffffffffffffffffffffffff021916908373ffffffffffffffffffffffffffffffffffffffff1602179055506000600281905550610fa28061006d6000396000f3fe6080604052600436106100f35760003560e01c80639ada30ac1161008a578063d0e30db011610059578063d0e30db0146102b6578063d3438aa2146102c0578063d748e0aa146102fd578063d7c81b5514610328576100f3565b80639ada30ac146101fa578063a41aaac914610211578063ae6b78481461024e578063b66c706f1461028b576100f3565b8063629eaddb116100c6578063629eaddb146101625780637d789dee1461018d57806384d452ff146101b85780638edd6eb6146101cf576100f3565b80633175c933146100f85780633ce66910146101025780634529cae71461010c578063530e4a2914610137575b600080fd5b610100610353565b005b61010a610402565b005b34801561011857600080fd5b506101216104b1565b60405161012e9190610a9d565b60405180910390f35b34801561014357600080fd5b5061014c6104ce565b6040516101599190610a9d565b60405180910390f35b34801561016e57600080fd5b506101776104d9565b6040516101849190610ba8565b60405180910390f35b34801561019957600080fd5b506101a2610567565b6040516101af9190610a9d565b60405180910390f35b3480156101c457600080fd5b506101cd6105b9565b005b3480156101db57600080fd5b506101e4610693565b6040516101f19190610a9d565b60405180910390f35b34801561020657600080fd5b5061020f61069b565b005b34801561021d57600080fd5b5061023860048036038101906102339190610bfb565b6108ab565b6040516102459190610c37565b60405180910390f35b34801561025a57600080fd5b5061027560048036038101906102709190610bfb565b6108ea565b6040516102829190610c37565b60405180910390f35b34801561029757600080fd5b506102a0610929565b6040516102ad9190610a9d565b60405180910390f35b6102be61092f565b005b3480156102cc57600080fd5b506102e760048036038101906102e29190610bfb565b610931565b6040516102f49190610a9d565b60405180910390f35b34801561030957600080fd5b50610312610949565b60405161031f9190610ba8565b60405180910390f35b34801561033457600080fd5b5061033d6109d7565b60405161034a9190610a9d565b60405180910390f35b662386f26fc1000034101561039d576040517f08c379a000000000000000000000000000000000000000000000000000000000815260040161039490610caf565b60405180910390fd5b6006339080600181540180825580915050600190039060005260206000200160009091909190916101000a81548173ffffffffffffffffffffffffffffffffffffffff021916908373ffffffffffffffffffffffffffffffffffffffff160217905550565b662386f26fc1000034101561044c576040517f08c379a000000000000000000000000000000000000000000000000000000000815260040161044390610caf565b60405180910390fd5b6005339080600181540180825580915050600190039060005260206000200160009091909190916101000a81548173ffffffffffffffffffffffffffffffffffffffff021916908373ffffffffffffffffffffffffffffffffffffffff160217905550565b60006005805490506006805490506104c99190610cfe565b905090565b662386f26fc1000081565b6060600580548060200260200160405190810160405280929190818152602001828054801561055d57602002820191906000526020600020905b8160009054906101000a900473ffffffffffffffffffffffffffffffffffffffff1673ffffffffffffffffffffffffffffffffffffffff1681526020019060010190808311610513575b5050505050905090565b6000806001600642443360405160200161058393929190610dcf565b6040516020818303038152906040528051906020012060001c6105a69190610e3b565b6105b09190610cfe565b90508091505090565b600067ffffffffffffffff8111156105d4576105d3610e6c565b5b6040519080825280602002602001820160405280156106025781602001602082028036833780820191505090505b50600590805190602001906106189291906109dd565b50600067ffffffffffffffff81111561063457610633610e6c565b5b6040519080825280602002602001820160405280156106625781602001602082028036833780820191505090505b50600690805190602001906106789291906109dd565b506002600081548092919061068c90610e9b565b9190505550565b600047905090565b600680549050662386f26fc100006106b39190610ee3565b4710156106bf57600080fd5b600580549050662386f26fc100006106d79190610ee3565b4710156106e357600080fd5b6106eb610567565b600381905550600060026003546107029190610e3b565b036107c85760005b6006805490508110156107c2576006818154811061072b5761072a610f3d565b5b9060005260206000200160009054906101000a900473ffffffffffffffffffffffffffffffffffffffff1673ffffffffffffffffffffffffffffffffffffffff166108fc6002662386f26fc100006107839190610ee3565b9081150290604051600060405180830381858888f193505050501580156107ae573d6000803e3d6000fd5b5080806107ba90610e9b565b91505061070a565b50610885565b60005b60058054905081101561088357600581815481106107ec576107eb610f3d565b5b9060005260206000200160009054906101000a900473ffffffffffffffffffffffffffffffffffffffff1673ffffffffffffffffffffffffffffffffffffffff166108fc6002662386f26fc100006108449190610ee3565b9081150290604051600060405180830381858888f1935050505015801561086f573d6000803e3d6000fd5b50808061087b90610e9b565b9150506107cb565b505b600354600460006002548152602001908152602001600020819055506108a96105b9565b565b600681815481106108bb57600080fd5b906000526020600020016000915054906101000a900473ffffffffffffffffffffffffffffffffffffffff1681565b600581815481106108fa57600080fd5b906000526020600020016000915054906101000a900473ffffffffffffffffffffffffffffffffffffffff1681565b61012c81565b565b60046020528060005260406000206000915090505481565b606060068054806020026020016040519081016040528092919081815260200182805480156109cd57602002820191906000526020600020905b8160009054906101000a900473ffffffffffffffffffffffffffffffffffffffff1673ffffffffffffffffffffffffffffffffffffffff1681526020019060010190808311610983575b5050505050905090565b60025481565b828054828255906000526020600020908101928215610a56579160200282015b82811115610a555782518260006101000a81548173ffffffffffffffffffffffffffffffffffffffff021916908373ffffffffffffffffffffffffffffffffffffffff160217905550916020019190600101906109fd565b5b509050610a639190610a67565b5090565b5b80821115610a80576000816000905550600101610a68565b5090565b6000819050919050565b610a9781610a84565b82525050565b6000602082019050610ab26000830184610a8e565b92915050565b600081519050919050565b600082825260208201905092915050565b6000819050602082019050919050565b600073ffffffffffffffffffffffffffffffffffffffff82169050919050565b6000610b0f82610ae4565b9050919050565b610b1f81610b04565b82525050565b6000610b318383610b16565b60208301905092915050565b6000602082019050919050565b6000610b5582610ab8565b610b5f8185610ac3565b9350610b6a83610ad4565b8060005b83811015610b9b578151610b828882610b25565b9750610b8d83610b3d565b925050600181019050610b6e565b5085935050505092915050565b60006020820190508181036000830152610bc28184610b4a565b905092915050565b600080fd5b610bd881610a84565b8114610be357600080fd5b50565b600081359050610bf581610bcf565b92915050565b600060208284031215610c1157610c10610bca565b5b6000610c1f84828501610be6565b91505092915050565b610c3181610b04565b82525050565b6000602082019050610c4c6000830184610c28565b92915050565b600082825260208201905092915050565b7f4e6f7420656e6f7567682042657420416d6f756e740000000000000000000000600082015250565b6000610c99601583610c52565b9150610ca482610c63565b602082019050919050565b60006020820190508181036000830152610cc881610c8c565b9050919050565b7f4e487b7100000000000000000000000000000000000000000000000000000000600052601160045260246000fd5b6000610d0982610a84565b9150610d1483610a84565b9250827fffffffffffffffffffffffffffffffffffffffffffffffffffffffffffffffff03821115610d4957610d48610ccf565b5b828201905092915050565b6000819050919050565b610d6f610d6a82610a84565b610d54565b82525050565b6000610d8082610ae4565b9050919050565b60008160601b9050919050565b6000610d9f82610d87565b9050919050565b6000610db182610d94565b9050919050565b610dc9610dc482610d75565b610da6565b82525050565b6000610ddb8286610d5e565b602082019150610deb8285610d5e565b602082019150610dfb8284610db8565b601482019150819050949350505050565b7f4e487b7100000000000000000000000000000000000000000000000000000000600052601260045260246000fd5b6000610e4682610a84565b9150610e5183610a84565b925082610e6157610e60610e0c565b5b828206905092915050565b7f4e487b7100000000000000000000000000000000000000000000000000000000600052604160045260246000fd5b6000610ea682610a84565b91507fffffffffffffffffffffffffffffffffffffffffffffffffffffffffffffffff8203610ed857610ed7610ccf565b5b600182019050919050565b6000610eee82610a84565b9150610ef983610a84565b9250817fffffffffffffffffffffffffffffffffffffffffffffffffffffffffffffffff0483118215151615610f3257610f31610ccf565b5b828202905092915050565b7f4e487b7100000000000000000000000000000000000000000000000000000000600052603260045260246000fdfea264697066735822122078621d8bcfcbfcaca2f17169330f7b3749b5f7221b87497f114afc2643713dbb64736f6c634300080f0033",
  "immutableReferences": {},
  "source": "// SPDX-License-Identifier: MIT\r\npragma solidity ^0.8.15;\r\n\r\n// import \"@chainlink/contracts/src/v0.8/interfaces/VRFCoordinatorV2Interface.sol\";\r\n// import \"@chainlink/contracts/src/v0.8/VRFConsumerBaseV2.sol\";\r\ncontract EvenOdd {\r\n\r\n    address owner;\r\n    address host;\r\n    uint constant public DEFAULT_BET_AMOUNT = 0.01 ether;\r\n    uint public gameId;\r\n    uint dice = 0;\r\n    mapping (uint => uint) public gameHistory;\r\n    uint constant public BET_TIMEOUT = 5 minutes;\r\n    \r\n    address payable[] public arrayPlayerOdd;\r\n    address payable[] public arrayPlayerEven;\r\n\r\n    constructor () {\r\n        owner = msg.sender;\r\n        gameId = 0;\r\n    }\r\n\r\n    modifier isHost(){\r\n        require(msg.sender == host || msg.sender == owner);\r\n        _;\r\n    }\r\n\r\n    modifier isValidBet(){        \r\n        require(msg.value >= DEFAULT_BET_AMOUNT, \"Not enough Bet Amount\");\r\n        _;\r\n    }\r\n\r\n\r\n    modifier isEnoughFund(){\r\n        require(address(this).balance >= DEFAULT_BET_AMOUNT * arrayPlayerEven.length);\r\n        require(address(this).balance >= DEFAULT_BET_AMOUNT * arrayPlayerOdd.length);\r\n        _;\r\n    }\r\n\r\n    function resetRound() public {\r\n        arrayPlayerOdd = new address payable[](0);\r\n        arrayPlayerEven = new address payable[](0);\r\n        gameId++;\r\n    }\r\n\r\n    function getFund() public view returns (uint) {\r\n        return address(this).balance;\r\n    }\r\n\r\n    function getOddPlayers() public view returns (address payable[] memory ) {        \r\n        return arrayPlayerOdd;\r\n    }\r\n\r\n    function getEvenPlayers() public view returns (address payable[] memory ) {        \r\n        return arrayPlayerEven;\r\n    }\r\n\r\n    function getTotalPlayers() public view returns (uint) {\r\n        return arrayPlayerEven.length + arrayPlayerOdd.length;\r\n    }\r\n\r\n    function putInEven() public  isValidBet payable{\r\n        arrayPlayerEven.push(payable(msg.sender));\r\n    }\r\n\r\n    function putInOdd() public isValidBet payable{\r\n        arrayPlayerOdd.push(payable(msg.sender));\r\n    }\r\n\r\n\r\n    function rollTheDice() public view returns (uint){\r\n        \r\n        uint _dice = uint(keccak256(abi.encodePacked(block.timestamp,block.difficulty, msg.sender))) % 6 + 1;\r\n        // _dices[1] = uint(keccak256(abi.encodePacked(block.timestamp,block.difficulty, msg.sender))) / 10 % 6 + 1;\r\n        // _dices[2] = uint(keccak256(abi.encodePacked(block.timestamp,block.difficulty, msg.sender))) / 100 % 6 + 1;\r\n        // this method isn't safe. Use Chainlink VRF instead        \r\n        return _dice;        \r\n    }\r\n\r\n    function deposit() public payable {\r\n    }    \r\n\r\n    function endBet() public isEnoughFund{\r\n        // check winner\r\n        dice = rollTheDice();        \r\n        if (dice % 2 == 0) {\r\n            // pay even players\r\n            for (uint index = 0; index < arrayPlayerEven.length; index++) {\r\n                arrayPlayerEven[index].transfer(DEFAULT_BET_AMOUNT * 2);\r\n            }\r\n        }\r\n        else {\r\n            // pay odd players            \r\n            for (uint index = 0; index < arrayPlayerOdd.length; index++) {\r\n                arrayPlayerOdd[index].transfer(DEFAULT_BET_AMOUNT * 2);\r\n            }\r\n        }\r\n        gameHistory[gameId] = dice; // save game history\r\n        resetRound();\r\n\r\n    }\r\n}\r\n",
  "sourcePath": "D:\\Projects\\tai-xiu\\contracts\\truffle-project\\contracts\\EvenOdd.sol",
  "compiler": {
    "name": "solc",
    "version": "0.8.15+commit.e14f2714.Emscripten.clang"
  },
  "schemaVersion": "3.4.8",
  "updatedAt": "2022-07-17T11:58:24.073Z",
  "networkType": "ethereum",
  "devdoc": {
    "kind": "dev",
    "methods": {},
    "version": 1
  },
  "userdoc": {
    "kind": "user",
    "methods": {},
    "version": 1
  }
}